{
  "address": "0x4F5C5Bc6c1DbA7C037D09558f5EfbFC1Ec091BF5",
  "abi": [
    {
      "inputs": [
        {
          "internalType": "address[]",
          "name": "_references",
          "type": "address[]"
        },
        {
          "internalType": "string",
          "name": "_initialuri",
          "type": "string"
        },
        {
          "internalType": "uint256",
          "name": "_baseFundingPrice",
          "type": "uint256"
        },
        {
          "internalType": "uint256",
          "name": "_referenceRoyalty",
          "type": "uint256"
        }
      ],
      "stateMutability": "nonpayable",
      "type": "constructor"
    },
    {
      "inputs": [
        {
          "internalType": "address",
          "name": "sender",
          "type": "address"
        },
        {
          "internalType": "uint256",
          "name": "balance",
          "type": "uint256"
        },
        {
          "internalType": "uint256",
          "name": "needed",
          "type": "uint256"
        },
        {
          "internalType": "uint256",
          "name": "tokenId",
          "type": "uint256"
        }
      ],
      "name": "ERC1155InsufficientBalance",
      "type": "error"
    },
    {
      "inputs": [
        {
          "internalType": "address",
          "name": "approver",
          "type": "address"
        }
      ],
      "name": "ERC1155InvalidApprover",
      "type": "error"
    },
    {
      "inputs": [
        {
          "internalType": "uint256",
          "name": "idsLength",
          "type": "uint256"
        },
        {
          "internalType": "uint256",
          "name": "valuesLength",
          "type": "uint256"
        }
      ],
      "name": "ERC1155InvalidArrayLength",
      "type": "error"
    },
    {
      "inputs": [
        {
          "internalType": "address",
          "name": "operator",
          "type": "address"
        }
      ],
      "name": "ERC1155InvalidOperator",
      "type": "error"
    },
    {
      "inputs": [
        {
          "internalType": "address",
          "name": "receiver",
          "type": "address"
        }
      ],
      "name": "ERC1155InvalidReceiver",
      "type": "error"
    },
    {
      "inputs": [
        {
          "internalType": "address",
          "name": "sender",
          "type": "address"
        }
      ],
      "name": "ERC1155InvalidSender",
      "type": "error"
    },
    {
      "inputs": [
        {
          "internalType": "address",
          "name": "operator",
          "type": "address"
        },
        {
          "internalType": "address",
          "name": "owner",
          "type": "address"
        }
      ],
      "name": "ERC1155MissingApprovalForAll",
      "type": "error"
    },
    {
      "inputs": [
        {
          "internalType": "address",
          "name": "owner",
          "type": "address"
        }
      ],
      "name": "OwnableInvalidOwner",
      "type": "error"
    },
    {
      "inputs": [
        {
          "internalType": "address",
          "name": "account",
          "type": "address"
        }
      ],
      "name": "OwnableUnauthorizedAccount",
      "type": "error"
    },
    {
      "inputs": [],
      "name": "ReentrancyGuardReentrantCall",
      "type": "error"
    },
    {
      "anonymous": false,
      "inputs": [
        {
          "indexed": true,
          "internalType": "address",
          "name": "account",
          "type": "address"
        },
        {
          "indexed": true,
          "internalType": "address",
          "name": "operator",
          "type": "address"
        },
        {
          "indexed": false,
          "internalType": "bool",
          "name": "approved",
          "type": "bool"
        }
      ],
      "name": "ApprovalForAll",
      "type": "event"
    },
    {
      "anonymous": false,
      "inputs": [
        {
          "indexed": true,
          "internalType": "address",
          "name": "from",
          "type": "address"
        },
        {
          "indexed": false,
          "internalType": "uint256",
          "name": "amount",
          "type": "uint256"
        },
        {
          "indexed": false,
          "internalType": "uint256",
          "name": "mintedUnits",
          "type": "uint256"
        }
      ],
      "name": "Funded",
      "type": "event"
    },
    {
      "anonymous": false,
      "inputs": [
        {
          "indexed": true,
          "internalType": "address",
          "name": "previousOwner",
          "type": "address"
        },
        {
          "indexed": true,
          "internalType": "address",
          "name": "newOwner",
          "type": "address"
        }
      ],
      "name": "OwnershipTransferred",
      "type": "event"
    },
    {
      "anonymous": false,
      "inputs": [
        {
          "indexed": true,
          "internalType": "address",
          "name": "from",
          "type": "address"
        },
        {
          "indexed": true,
          "internalType": "address",
          "name": "to",
          "type": "address"
        }
      ],
      "name": "ReferencePaper",
      "type": "event"
    },
    {
      "anonymous": false,
      "inputs": [
        {
          "indexed": true,
          "internalType": "address",
          "name": "operator",
          "type": "address"
        },
        {
          "indexed": true,
          "internalType": "address",
          "name": "from",
          "type": "address"
        },
        {
          "indexed": true,
          "internalType": "address",
          "name": "to",
          "type": "address"
        },
        {
          "indexed": false,
          "internalType": "uint256[]",
          "name": "ids",
          "type": "uint256[]"
        },
        {
          "indexed": false,
          "internalType": "uint256[]",
          "name": "values",
          "type": "uint256[]"
        }
      ],
      "name": "TransferBatch",
      "type": "event"
    },
    {
      "anonymous": false,
      "inputs": [
        {
          "indexed": true,
          "internalType": "address",
          "name": "operator",
          "type": "address"
        },
        {
          "indexed": true,
          "internalType": "address",
          "name": "from",
          "type": "address"
        },
        {
          "indexed": true,
          "internalType": "address",
          "name": "to",
          "type": "address"
        },
        {
          "indexed": false,
          "internalType": "uint256",
          "name": "id",
          "type": "uint256"
        },
        {
          "indexed": false,
          "internalType": "uint256",
          "name": "value",
          "type": "uint256"
        }
      ],
      "name": "TransferSingle",
      "type": "event"
    },
    {
      "anonymous": false,
      "inputs": [
        {
          "indexed": false,
          "internalType": "string",
          "name": "value",
          "type": "string"
        },
        {
          "indexed": true,
          "internalType": "uint256",
          "name": "id",
          "type": "uint256"
        }
      ],
      "name": "URI",
      "type": "event"
    },
    {
      "inputs": [
        {
          "internalType": "address",
          "name": "account",
          "type": "address"
        },
        {
          "internalType": "uint256",
          "name": "id",
          "type": "uint256"
        }
      ],
      "name": "balanceOf",
      "outputs": [
        {
          "internalType": "uint256",
          "name": "",
          "type": "uint256"
        }
      ],
      "stateMutability": "view",
      "type": "function"
    },
    {
      "inputs": [
        {
          "internalType": "address[]",
          "name": "accounts",
          "type": "address[]"
        },
        {
          "internalType": "uint256[]",
          "name": "ids",
          "type": "uint256[]"
        }
      ],
      "name": "balanceOfBatch",
      "outputs": [
        {
          "internalType": "uint256[]",
          "name": "",
          "type": "uint256[]"
        }
      ],
      "stateMutability": "view",
      "type": "function"
    },
    {
      "inputs": [],
      "name": "baseFundingPrice",
      "outputs": [
        {
          "internalType": "uint256",
          "name": "",
          "type": "uint256"
        }
      ],
      "stateMutability": "view",
      "type": "function"
    },
    {
      "inputs": [
        {
          "internalType": "address",
          "name": "account",
          "type": "address"
        },
        {
          "internalType": "uint256",
          "name": "id",
          "type": "uint256"
        },
        {
          "internalType": "uint256",
          "name": "value",
          "type": "uint256"
        }
      ],
      "name": "burn",
      "outputs": [],
      "stateMutability": "nonpayable",
      "type": "function"
    },
    {
      "inputs": [
        {
          "internalType": "address",
          "name": "account",
          "type": "address"
        },
        {
          "internalType": "uint256[]",
          "name": "ids",
          "type": "uint256[]"
        },
        {
          "internalType": "uint256[]",
          "name": "values",
          "type": "uint256[]"
        }
      ],
      "name": "burnBatch",
      "outputs": [],
      "stateMutability": "nonpayable",
      "type": "function"
    },
    {
      "inputs": [
        {
          "internalType": "uint256",
          "name": "id",
          "type": "uint256"
        }
      ],
      "name": "exists",
      "outputs": [
        {
          "internalType": "bool",
          "name": "",
          "type": "bool"
        }
      ],
      "stateMutability": "view",
      "type": "function"
    },
    {
      "inputs": [],
      "name": "fund",
      "outputs": [],
      "stateMutability": "payable",
      "type": "function"
    },
    {
      "inputs": [
        {
          "internalType": "address",
          "name": "account",
          "type": "address"
        },
        {
          "internalType": "address",
          "name": "operator",
          "type": "address"
        }
      ],
      "name": "isApprovedForAll",
      "outputs": [
        {
          "internalType": "bool",
          "name": "",
          "type": "bool"
        }
      ],
      "stateMutability": "view",
      "type": "function"
    },
    {
      "inputs": [],
      "name": "owner",
      "outputs": [
        {
          "internalType": "address",
          "name": "",
          "type": "address"
        }
      ],
      "stateMutability": "view",
      "type": "function"
    },
    {
      "inputs": [
        {
          "internalType": "string",
          "name": "_newuri",
          "type": "string"
        }
      ],
      "name": "publishPaper",
      "outputs": [],
      "stateMutability": "nonpayable",
      "type": "function"
    },
    {
      "inputs": [
        {
          "internalType": "address",
          "name": "",
          "type": "address"
        }
      ],
      "name": "referenceBalances",
      "outputs": [
        {
          "internalType": "uint256",
          "name": "",
          "type": "uint256"
        }
      ],
      "stateMutability": "view",
      "type": "function"
    },
    {
      "inputs": [],
      "name": "referenceRoyalty",
      "outputs": [
        {
          "internalType": "uint256",
          "name": "",
          "type": "uint256"
        }
      ],
      "stateMutability": "view",
      "type": "function"
    },
    {
      "inputs": [
        {
          "internalType": "uint256",
          "name": "",
          "type": "uint256"
        }
      ],
      "name": "references",
      "outputs": [
        {
          "internalType": "address",
          "name": "",
          "type": "address"
        }
      ],
      "stateMutability": "view",
      "type": "function"
    },
    {
      "inputs": [],
      "name": "renounceOwnership",
      "outputs": [],
      "stateMutability": "nonpayable",
      "type": "function"
    },
    {
      "inputs": [
        {
          "internalType": "address",
          "name": "from",
          "type": "address"
        },
        {
          "internalType": "address",
          "name": "to",
          "type": "address"
        },
        {
          "internalType": "uint256[]",
          "name": "ids",
          "type": "uint256[]"
        },
        {
          "internalType": "uint256[]",
          "name": "amounts",
          "type": "uint256[]"
        },
        {
          "internalType": "bytes",
          "name": "data",
          "type": "bytes"
        }
      ],
      "name": "safeBatchTransferFrom",
      "outputs": [],
      "stateMutability": "nonpayable",
      "type": "function"
    },
    {
      "inputs": [
        {
          "internalType": "address",
          "name": "from",
          "type": "address"
        },
        {
          "internalType": "address",
          "name": "to",
          "type": "address"
        },
        {
          "internalType": "uint256",
          "name": "id",
          "type": "uint256"
        },
        {
          "internalType": "uint256",
          "name": "amount",
          "type": "uint256"
        },
        {
          "internalType": "bytes",
          "name": "data",
          "type": "bytes"
        }
      ],
      "name": "safeTransferFrom",
      "outputs": [],
      "stateMutability": "nonpayable",
      "type": "function"
    },
    {
      "inputs": [
        {
          "internalType": "address",
          "name": "operator",
          "type": "address"
        },
        {
          "internalType": "bool",
          "name": "approved",
          "type": "bool"
        }
      ],
      "name": "setApprovalForAll",
      "outputs": [],
      "stateMutability": "nonpayable",
      "type": "function"
    },
    {
      "inputs": [
        {
          "internalType": "bytes4",
          "name": "interfaceId",
          "type": "bytes4"
        }
      ],
      "name": "supportsInterface",
      "outputs": [
        {
          "internalType": "bool",
          "name": "",
          "type": "bool"
        }
      ],
      "stateMutability": "view",
      "type": "function"
    },
    {
      "inputs": [],
      "name": "totalSupply",
      "outputs": [
        {
          "internalType": "uint256",
          "name": "",
          "type": "uint256"
        }
      ],
      "stateMutability": "view",
      "type": "function"
    },
    {
      "inputs": [
        {
          "internalType": "uint256",
          "name": "id",
          "type": "uint256"
        }
      ],
      "name": "totalSupply",
      "outputs": [
        {
          "internalType": "uint256",
          "name": "",
          "type": "uint256"
        }
      ],
      "stateMutability": "view",
      "type": "function"
    },
    {
      "inputs": [
        {
          "internalType": "address",
          "name": "newOwner",
          "type": "address"
        }
      ],
      "name": "transferOwnership",
      "outputs": [],
      "stateMutability": "nonpayable",
      "type": "function"
    },
    {
      "inputs": [
        {
          "internalType": "uint256",
          "name": "id",
          "type": "uint256"
        }
      ],
      "name": "uri",
      "outputs": [
        {
          "internalType": "string",
          "name": "",
          "type": "string"
        }
      ],
      "stateMutability": "view",
      "type": "function"
    }
  ],
  "transactionHash": "0xe32e18f978d23f8fc998eb670e8162026cb9aa49c6d3900f031e2a12236125ea",
  "args": [
    [
      "0x0000000000000000000000000000000000000000",
      "0x0000000000000000000000000000000000000000"
    ],
    "ipfs://0x",
    "1000000000000000",
    2
  ],
  "numDeployments": 1,
  "solcInputHash": "b8123a90d05fe76daafaee6291543e78",
  "bytecode": "0x608060405260405180602001604052806000815250600690816200002491906200060e565b503480156200003257600080fd5b506040516200426d3803806200426d8339818101604052810190620000589190620009ca565b33836200006b816200020b60201b60201c565b50600073ffffffffffffffffffffffffffffffffffffffff168173ffffffffffffffffffffffffffffffffffffffff1603620000e15760006040517f1e4fbdf7000000000000000000000000000000000000000000000000000000008152600401620000d8919062000a8b565b60405180910390fd5b620000f2816200022060201b60201c565b50600160088190555083600c908051906020019062000113929190620002e6565b5081600a8190555080600b8190555062000133836200020b60201b60201c565b60017f6bb7ff708619ba0610cba295a58592e0451dee2622938c8755667688daf3529b8460405162000166919062000afa565b60405180910390a260005b8451811015620002005784818151811062000191576200019062000b1e565b5b602002602001015173ffffffffffffffffffffffffffffffffffffffff163073ffffffffffffffffffffffffffffffffffffffff167f3a6b679fa8b8b0aace56108e2df5cea384a3092fcefa52fa5d370cd15db4212e60405160405180910390a3808060010191505062000171565b505050505062000b4d565b80600290816200021c91906200060e565b5050565b6000600360009054906101000a900473ffffffffffffffffffffffffffffffffffffffff16905081600360006101000a81548173ffffffffffffffffffffffffffffffffffffffff021916908373ffffffffffffffffffffffffffffffffffffffff1602179055508173ffffffffffffffffffffffffffffffffffffffff168173ffffffffffffffffffffffffffffffffffffffff167f8be0079c531659141344cd1fd0a4f28419497f9722a3daafe3b4186f6b6457e060405160405180910390a35050565b82805482825590600052602060002090810192821562000362579160200282015b82811115620003615782518260006101000a81548173ffffffffffffffffffffffffffffffffffffffff021916908373ffffffffffffffffffffffffffffffffffffffff1602179055509160200191906001019062000307565b5b50905062000371919062000375565b5090565b5b808211156200039057600081600090555060010162000376565b5090565b600081519050919050565b7f4e487b7100000000000000000000000000000000000000000000000000000000600052604160045260246000fd5b7f4e487b7100000000000000000000000000000000000000000000000000000000600052602260045260246000fd5b600060028204905060018216806200041657607f821691505b6020821081036200042c576200042b620003ce565b5b50919050565b60008190508160005260206000209050919050565b60006020601f8301049050919050565b600082821b905092915050565b600060088302620004967fffffffffffffffffffffffffffffffffffffffffffffffffffffffffffffffff8262000457565b620004a2868362000457565b95508019841693508086168417925050509392505050565b6000819050919050565b6000819050919050565b6000620004ef620004e9620004e384620004ba565b620004c4565b620004ba565b9050919050565b6000819050919050565b6200050b83620004ce565b620005236200051a82620004f6565b84845462000464565b825550505050565b600090565b6200053a6200052b565b6200054781848462000500565b505050565b5b818110156200056f576200056360008262000530565b6001810190506200054d565b5050565b601f821115620005be57620005888162000432565b620005938462000447565b81016020851015620005a3578190505b620005bb620005b28562000447565b8301826200054c565b50505b505050565b600082821c905092915050565b6000620005e360001984600802620005c3565b1980831691505092915050565b6000620005fe8383620005d0565b9150826002028217905092915050565b620006198262000394565b67ffffffffffffffff8111156200063557620006346200039f565b5b620006418254620003fd565b6200064e82828562000573565b600060209050601f83116001811462000686576000841562000671578287015190505b6200067d8582620005f0565b865550620006ed565b601f198416620006968662000432565b60005b82811015620006c05784890151825560018201915060208501945060208101905062000699565b86831015620006e05784890151620006dc601f891682620005d0565b8355505b6001600288020188555050505b505050505050565b6000604051905090565b600080fd5b600080fd5b600080fd5b6000601f19601f8301169050919050565b6200072a826200070e565b810181811067ffffffffffffffff821117156200074c576200074b6200039f565b5b80604052505050565b600062000761620006f5565b90506200076f82826200071f565b919050565b600067ffffffffffffffff8211156200079257620007916200039f565b5b602082029050602081019050919050565b600080fd5b600073ffffffffffffffffffffffffffffffffffffffff82169050919050565b6000620007d582620007a8565b9050919050565b620007e781620007c8565b8114620007f357600080fd5b50565b6000815190506200080781620007dc565b92915050565b6000620008246200081e8462000774565b62000755565b905080838252602082019050602084028301858111156200084a5762000849620007a3565b5b835b81811015620008775780620008628882620007f6565b8452602084019350506020810190506200084c565b5050509392505050565b600082601f83011262000899576200089862000709565b5b8151620008ab8482602086016200080d565b91505092915050565b600080fd5b600067ffffffffffffffff821115620008d757620008d66200039f565b5b620008e2826200070e565b9050602081019050919050565b60005b838110156200090f578082015181840152602081019050620008f2565b60008484015250505050565b6000620009326200092c84620008b9565b62000755565b905082815260208101848484011115620009515762000950620008b4565b5b6200095e848285620008ef565b509392505050565b600082601f8301126200097e576200097d62000709565b5b8151620009908482602086016200091b565b91505092915050565b620009a481620004ba565b8114620009b057600080fd5b50565b600081519050620009c48162000999565b92915050565b60008060008060808587031215620009e757620009e6620006ff565b5b600085015167ffffffffffffffff81111562000a085762000a0762000704565b5b62000a168782880162000881565b945050602085015167ffffffffffffffff81111562000a3a5762000a3962000704565b5b62000a488782880162000966565b935050604062000a5b87828801620009b3565b925050606062000a6e87828801620009b3565b91505092959194509250565b62000a8581620007c8565b82525050565b600060208201905062000aa2600083018462000a7a565b92915050565b600082825260208201905092915050565b600062000ac68262000394565b62000ad2818562000aa8565b935062000ae4818560208601620008ef565b62000aef816200070e565b840191505092915050565b6000602082019050818103600083015262000b16818462000ab9565b905092915050565b7f4e487b7100000000000000000000000000000000000000000000000000000000600052603260045260246000fd5b6137108062000b5d6000396000f3fe6080604052600436106101345760003560e01c80638da5cb5b116100ab578063bd85b0391161006f578063bd85b0391461042c578063daa2e97814610469578063e985e9c514610492578063f242432a146104cf578063f2fde38b146104f8578063f5298aca1461052157610134565b80638da5cb5b146103665780639d9d252814610391578063a00e511f146103bc578063a22cb465146103f9578063b60d42881461042257610134565b80632eb2c2d6116100fd5780632eb2c2d6146102585780634e1273f4146102815780634f558e79146102be5780635e2423e6146102fb5780636b20c45414610326578063715018a61461034f57610134565b8062fdd58e1461013957806301ffc9a71461017657806304866b90146101b35780630e89341c146101f057806318160ddd1461022d575b600080fd5b34801561014557600080fd5b50610160600480360381019061015b9190612465565b61054a565b60405161016d91906124b4565b60405180910390f35b34801561018257600080fd5b5061019d60048036038101906101989190612527565b6105a4565b6040516101aa919061256f565b60405180910390f35b3480156101bf57600080fd5b506101da60048036038101906101d5919061258a565b610686565b6040516101e791906125c6565b60405180910390f35b3480156101fc57600080fd5b506102176004803603810190610212919061258a565b6106c5565b6040516102249190612671565b60405180910390f35b34801561023957600080fd5b506102426106d7565b60405161024f91906124b4565b60405180910390f35b34801561026457600080fd5b5061027f600480360381019061027a9190612890565b6106e1565b005b34801561028d57600080fd5b506102a860048036038101906102a39190612a22565b610756565b6040516102b59190612b58565b60405180910390f35b3480156102ca57600080fd5b506102e560048036038101906102e0919061258a565b61085f565b6040516102f2919061256f565b60405180910390f35b34801561030757600080fd5b50610310610873565b60405161031d91906124b4565b60405180910390f35b34801561033257600080fd5b5061034d60048036038101906103489190612b7a565b610879565b005b34801561035b57600080fd5b50610364610925565b005b34801561037257600080fd5b5061037b610939565b60405161038891906125c6565b60405180910390f35b34801561039d57600080fd5b506103a6610963565b6040516103b391906124b4565b60405180910390f35b3480156103c857600080fd5b506103e360048036038101906103de9190612c05565b610969565b6040516103f091906124b4565b60405180910390f35b34801561040557600080fd5b50610420600480360381019061041b9190612c5e565b610981565b005b61042a610997565b005b34801561043857600080fd5b50610453600480360381019061044e919061258a565b610c38565b60405161046091906124b4565b60405180910390f35b34801561047557600080fd5b50610490600480360381019061048b9190612d3f565b610c55565b005b34801561049e57600080fd5b506104b960048036038101906104b49190612d88565b610d51565b6040516104c6919061256f565b60405180910390f35b3480156104db57600080fd5b506104f660048036038101906104f19190612dc8565b610de5565b005b34801561050457600080fd5b5061051f600480360381019061051a9190612c05565b610e12565b005b34801561052d57600080fd5b5061054860048036038101906105439190612e5f565b610e98565b005b600080600083815260200190815260200160002060008473ffffffffffffffffffffffffffffffffffffffff1673ffffffffffffffffffffffffffffffffffffffff16815260200190815260200160002054905092915050565b60007fd9b67a26000000000000000000000000000000000000000000000000000000007bffffffffffffffffffffffffffffffffffffffffffffffffffffffff1916827bffffffffffffffffffffffffffffffffffffffffffffffffffffffff1916148061066f57507f0e89341c000000000000000000000000000000000000000000000000000000007bffffffffffffffffffffffffffffffffffffffffffffffffffffffff1916827bffffffffffffffffffffffffffffffffffffffffffffffffffffffff1916145b8061067f575061067e82610f44565b5b9050919050565b600c818154811061069657600080fd5b906000526020600020016000915054906101000a900473ffffffffffffffffffffffffffffffffffffffff1681565b60606106d082610fae565b9050919050565b6000600554905090565b6106e9611093565b6106f685858585856110d9565b600080600090505b835181101561073c5783818151811061071a57610719612eb2565b5b60200260200101518261072d9190612f10565b915080806001019150506106fe565b5061074681611181565b5061074f6111f1565b5050505050565b606081518351146107a257815183516040517f5b059991000000000000000000000000000000000000000000000000000000008152600401610799929190612f44565b60405180910390fd5b6000835167ffffffffffffffff8111156107bf576107be612698565b5b6040519080825280602002602001820160405280156107ed5781602001602082028036833780820191505090505b50905060005b84518110156108545761082a61081282876111fb90919063ffffffff16565b610825838761120f90919063ffffffff16565b61054a565b82828151811061083d5761083c612eb2565b5b6020026020010181815250508060010190506107f3565b508091505092915050565b60008061086b83610c38565b119050919050565b600a5481565b610881611223565b73ffffffffffffffffffffffffffffffffffffffff168373ffffffffffffffffffffffffffffffffffffffff16141580156108ca57506108c8836108c3611223565b610d51565b155b15610915576108d7611223565b836040517fe237d92200000000000000000000000000000000000000000000000000000000815260040161090c929190612f6d565b60405180910390fd5b61092083838361122b565b505050565b61092d6112bf565b6109376000611346565b565b6000600360009054906101000a900473ffffffffffffffffffffffffffffffffffffffff16905090565b600b5481565b600d6020528060005260406000206000915090505481565b61099361098c611223565b838361140c565b5050565b61099f611093565b600a543410156109e4576040517f08c379a00000000000000000000000000000000000000000000000000000000081526004016109db90612fe2565b60405180910390fd5b6000600a54346109f49190613031565b905060006064600b5434610a089190613062565b610a129190613031565b905060005b600c80549050811015610b60576000600c8054905083610a379190613031565b905080600d6000600c8581548110610a5257610a51612eb2565b5b9060005260206000200160009054906101000a900473ffffffffffffffffffffffffffffffffffffffff1673ffffffffffffffffffffffffffffffffffffffff1673ffffffffffffffffffffffffffffffffffffffff1681526020019081526020016000206000828254610ac69190612f10565b92505081905550600c8281548110610ae157610ae0612eb2565b5b9060005260206000200160009054906101000a900473ffffffffffffffffffffffffffffffffffffffff1673ffffffffffffffffffffffffffffffffffffffff166108fc829081150290604051600060405180830381858888f19350505050158015610b51573d6000803e3d6000fd5b50508080600101915050610a17565b5060008134610b6f91906130a4565b9050610b79610939565b73ffffffffffffffffffffffffffffffffffffffff166108fc829081150290604051600060405180830381858888f19350505050158015610bbe573d6000803e3d6000fd5b50610bdb336001856040518060200160405280600081525061157c565b3373ffffffffffffffffffffffffffffffffffffffff167fcd909ec339185c4598a4096e174308fbdf136d117f230960f873a2f2e81f63af3485604051610c23929190612f44565b60405180910390a2505050610c366111f1565b565b600060046000838152602001908152602001600020549050919050565b610c5d6112bf565b7f6deec1fa038166bb520aedbfaca68114d1df9f428815a59774d856397906a91d6009600082815260200190815260200160002060009054906101000a900460ff1615610cdf576040517f08c379a0000000000000000000000000000000000000000000000000000000008152600401610cd690613124565b60405180910390fd5b60016009600083815260200190815260200160002060006101000a81548160ff021916908315150217905550610d1482611615565b60017f6bb7ff708619ba0610cba295a58592e0451dee2622938c8755667688daf3529b83604051610d459190612671565b60405180910390a25050565b6000600160008473ffffffffffffffffffffffffffffffffffffffff1673ffffffffffffffffffffffffffffffffffffffff16815260200190815260200160002060008373ffffffffffffffffffffffffffffffffffffffff1673ffffffffffffffffffffffffffffffffffffffff16815260200190815260200160002060009054906101000a900460ff16905092915050565b610ded611093565b610dfa8585858585611628565b610e0382611181565b610e0b6111f1565b5050505050565b610e1a6112bf565b600073ffffffffffffffffffffffffffffffffffffffff168173ffffffffffffffffffffffffffffffffffffffff1603610e8c5760006040517f1e4fbdf7000000000000000000000000000000000000000000000000000000008152600401610e8391906125c6565b60405180910390fd5b610e9581611346565b50565b610ea0611223565b73ffffffffffffffffffffffffffffffffffffffff168373ffffffffffffffffffffffffffffffffffffffff1614158015610ee95750610ee783610ee2611223565b610d51565b155b15610f3457610ef6611223565b836040517fe237d922000000000000000000000000000000000000000000000000000000008152600401610f2b929190612f6d565b60405180910390fd5b610f3f8383836116d0565b505050565b60007f01ffc9a7000000000000000000000000000000000000000000000000000000007bffffffffffffffffffffffffffffffffffffffffffffffffffffffff1916827bffffffffffffffffffffffffffffffffffffffffffffffffffffffff1916149050919050565b60606000600760008481526020019081526020016000208054610fd090613173565b80601f0160208091040260200160405190810160405280929190818152602001828054610ffc90613173565b80156110495780601f1061101e57610100808354040283529160200191611049565b820191906000526020600020905b81548152906001019060200180831161102c57829003601f168201915b5050505050905060008151116110675761106283611777565b61108b565b60068160405160200161107b929190613278565b6040516020818303038152906040525b915050919050565b6002600854036110cf576040517f3ee5aeb500000000000000000000000000000000000000000000000000000000815260040160405180910390fd5b6002600881905550565b60006110e3611223565b90508073ffffffffffffffffffffffffffffffffffffffff168673ffffffffffffffffffffffffffffffffffffffff161415801561112857506111268682610d51565b155b1561116c5780866040517fe237d922000000000000000000000000000000000000000000000000000000008152600401611163929190612f6d565b60405180910390fd5b611179868686868661180b565b505050505050565b60006064600b54836111939190613062565b61119d9190613031565b90506111a7610939565b73ffffffffffffffffffffffffffffffffffffffff166108fc829081150290604051600060405180830381858888f193505050501580156111ec573d6000803e3d6000fd5b505050565b6001600881905550565b600060208202602084010151905092915050565b600060208202602084010151905092915050565b600033905090565b600073ffffffffffffffffffffffffffffffffffffffff168373ffffffffffffffffffffffffffffffffffffffff160361129d5760006040517f01a8351400000000000000000000000000000000000000000000000000000000815260040161129491906125c6565b60405180910390fd5b6112ba836000848460405180602001604052806000815250611903565b505050565b6112c7611223565b73ffffffffffffffffffffffffffffffffffffffff166112e5610939565b73ffffffffffffffffffffffffffffffffffffffff161461134457611308611223565b6040517f118cdaa700000000000000000000000000000000000000000000000000000000815260040161133b91906125c6565b60405180910390fd5b565b6000600360009054906101000a900473ffffffffffffffffffffffffffffffffffffffff16905081600360006101000a81548173ffffffffffffffffffffffffffffffffffffffff021916908373ffffffffffffffffffffffffffffffffffffffff1602179055508173ffffffffffffffffffffffffffffffffffffffff168173ffffffffffffffffffffffffffffffffffffffff167f8be0079c531659141344cd1fd0a4f28419497f9722a3daafe3b4186f6b6457e060405160405180910390a35050565b600073ffffffffffffffffffffffffffffffffffffffff168273ffffffffffffffffffffffffffffffffffffffff160361147e5760006040517fced3e10000000000000000000000000000000000000000000000000000000000815260040161147591906125c6565b60405180910390fd5b80600160008573ffffffffffffffffffffffffffffffffffffffff1673ffffffffffffffffffffffffffffffffffffffff16815260200190815260200160002060008473ffffffffffffffffffffffffffffffffffffffff1673ffffffffffffffffffffffffffffffffffffffff16815260200190815260200160002060006101000a81548160ff0219169083151502179055508173ffffffffffffffffffffffffffffffffffffffff168373ffffffffffffffffffffffffffffffffffffffff167f17307eab39ab6107e8899845ad3d59bd9653f200f220920489ca2b5937696c318360405161156f919061256f565b60405180910390a3505050565b600073ffffffffffffffffffffffffffffffffffffffff168473ffffffffffffffffffffffffffffffffffffffff16036115ee5760006040517f57f447ce0000000000000000000000000000000000000000000000000000000081526004016115e591906125c6565b60405180910390fd5b6000806115fb85856119b5565b9150915061160d600087848487611903565b505050505050565b80600290816116249190613433565b5050565b6000611632611223565b90508073ffffffffffffffffffffffffffffffffffffffff168673ffffffffffffffffffffffffffffffffffffffff161415801561167757506116758682610d51565b155b156116bb5780866040517fe237d9220000000000000000000000000000000000000000000000000000000081526004016116b2929190612f6d565b60405180910390fd5b6116c886868686866119e5565b505050505050565b600073ffffffffffffffffffffffffffffffffffffffff168373ffffffffffffffffffffffffffffffffffffffff16036117425760006040517f01a8351400000000000000000000000000000000000000000000000000000000815260040161173991906125c6565b60405180910390fd5b60008061174f84846119b5565b91509150611770856000848460405180602001604052806000815250611903565b5050505050565b60606002805461178690613173565b80601f01602080910402602001604051908101604052809291908181526020018280546117b290613173565b80156117ff5780601f106117d4576101008083540402835291602001916117ff565b820191906000526020600020905b8154815290600101906020018083116117e257829003601f168201915b50505050509050919050565b600073ffffffffffffffffffffffffffffffffffffffff168473ffffffffffffffffffffffffffffffffffffffff160361187d5760006040517f57f447ce00000000000000000000000000000000000000000000000000000000815260040161187491906125c6565b60405180910390fd5b600073ffffffffffffffffffffffffffffffffffffffff168573ffffffffffffffffffffffffffffffffffffffff16036118ef5760006040517f01a835140000000000000000000000000000000000000000000000000000000081526004016118e691906125c6565b60405180910390fd5b6118fc8585858585611903565b5050505050565b61190f85858585611af0565b600073ffffffffffffffffffffffffffffffffffffffff168473ffffffffffffffffffffffffffffffffffffffff16146119ae57600061194d611223565b9050600184510361199d57600061196e60008661120f90919063ffffffff16565b9050600061198660008661120f90919063ffffffff16565b9050611996838989858589611b02565b50506119ac565b6119ab818787878787611cb6565b5b505b5050505050565b60608060405191506001825283602083015260408201905060018152826020820152604081016040529250929050565b600073ffffffffffffffffffffffffffffffffffffffff168473ffffffffffffffffffffffffffffffffffffffff1603611a575760006040517f57f447ce000000000000000000000000000000000000000000000000000000008152600401611a4e91906125c6565b60405180910390fd5b600073ffffffffffffffffffffffffffffffffffffffff168573ffffffffffffffffffffffffffffffffffffffff1603611ac95760006040517f01a83514000000000000000000000000000000000000000000000000000000008152600401611ac091906125c6565b60405180910390fd5b600080611ad685856119b5565b91509150611ae78787848487611903565b50505050505050565b611afc84848484611e6a565b50505050565b60008473ffffffffffffffffffffffffffffffffffffffff163b1115611cae578373ffffffffffffffffffffffffffffffffffffffff1663f23a6e6187878686866040518663ffffffff1660e01b8152600401611b6395949392919061355a565b6020604051808303816000875af1925050508015611b9f57506040513d601f19601f82011682018060405250810190611b9c91906135c9565b60015b611c23573d8060008114611bcf576040519150601f19603f3d011682016040523d82523d6000602084013e611bd4565b606091505b506000815103611c1b57846040517f57f447ce000000000000000000000000000000000000000000000000000000008152600401611c1291906125c6565b60405180910390fd5b805181602001fd5b63f23a6e6160e01b7bffffffffffffffffffffffffffffffffffffffffffffffffffffffff1916817bffffffffffffffffffffffffffffffffffffffffffffffffffffffff191614611cac57846040517f57f447ce000000000000000000000000000000000000000000000000000000008152600401611ca391906125c6565b60405180910390fd5b505b505050505050565b60008473ffffffffffffffffffffffffffffffffffffffff163b1115611e62578373ffffffffffffffffffffffffffffffffffffffff1663bc197c8187878686866040518663ffffffff1660e01b8152600401611d179594939291906135f6565b6020604051808303816000875af1925050508015611d5357506040513d601f19601f82011682018060405250810190611d5091906135c9565b60015b611dd7573d8060008114611d83576040519150601f19603f3d011682016040523d82523d6000602084013e611d88565b606091505b506000815103611dcf57846040517f57f447ce000000000000000000000000000000000000000000000000000000008152600401611dc691906125c6565b60405180910390fd5b805181602001fd5b63bc197c8160e01b7bffffffffffffffffffffffffffffffffffffffffffffffffffffffff1916817bffffffffffffffffffffffffffffffffffffffffffffffffffffffff191614611e6057846040517f57f447ce000000000000000000000000000000000000000000000000000000008152600401611e5791906125c6565b60405180910390fd5b505b505050505050565b611e7684848484612015565b600073ffffffffffffffffffffffffffffffffffffffff168473ffffffffffffffffffffffffffffffffffffffff1603611f50576000805b8351811015611f34576000838281518110611ecc57611ecb612eb2565b5b602002602001015190508060046000878581518110611eee57611eed612eb2565b5b602002602001015181526020019081526020016000206000828254611f139190612f10565b925050819055508083611f269190612f10565b925050806001019050611eae565b508060056000828254611f479190612f10565b92505081905550505b600073ffffffffffffffffffffffffffffffffffffffff168373ffffffffffffffffffffffffffffffffffffffff160361200f576000805b8351811015611ffc576000838281518110611fa657611fa5612eb2565b5b602002602001015190508060046000878581518110611fc857611fc7612eb2565b5b6020026020010151815260200190815260200160002060008282540392505081905550808301925050806001019050611f88565b5080600560008282540392505081905550505b50505050565b805182511461205f57815181516040517f5b059991000000000000000000000000000000000000000000000000000000008152600401612056929190612f44565b60405180910390fd5b6000612069611223565b905060005b835181101561227857600061208c828661120f90919063ffffffff16565b905060006120a3838661120f90919063ffffffff16565b9050600073ffffffffffffffffffffffffffffffffffffffff168873ffffffffffffffffffffffffffffffffffffffff16146121d057600080600084815260200190815260200160002060008a73ffffffffffffffffffffffffffffffffffffffff1673ffffffffffffffffffffffffffffffffffffffff1681526020019081526020016000205490508181101561217857888183856040517f03dee4c500000000000000000000000000000000000000000000000000000000815260040161216f949392919061365e565b60405180910390fd5b81810360008085815260200190815260200160002060008b73ffffffffffffffffffffffffffffffffffffffff1673ffffffffffffffffffffffffffffffffffffffff16815260200190815260200160002081905550505b600073ffffffffffffffffffffffffffffffffffffffff168773ffffffffffffffffffffffffffffffffffffffff161461226b578060008084815260200190815260200160002060008973ffffffffffffffffffffffffffffffffffffffff1673ffffffffffffffffffffffffffffffffffffffff16815260200190815260200160002060008282546122639190612f10565b925050819055505b505080600101905061206e565b50600183510361233757600061229860008561120f90919063ffffffff16565b905060006122b060008561120f90919063ffffffff16565b90508573ffffffffffffffffffffffffffffffffffffffff168773ffffffffffffffffffffffffffffffffffffffff168473ffffffffffffffffffffffffffffffffffffffff167fc3d58168c5ae7397731d063d5bbf3d657854427343f4c083240f7aacaa2d0f628585604051612328929190612f44565b60405180910390a450506123b6565b8373ffffffffffffffffffffffffffffffffffffffff168573ffffffffffffffffffffffffffffffffffffffff168273ffffffffffffffffffffffffffffffffffffffff167f4a39dc06d4c0dbc64b70af90fd698a233a518aa5d07e595d983b8c0526c8f7fb86866040516123ad9291906136a3565b60405180910390a45b5050505050565b6000604051905090565b600080fd5b600080fd5b600073ffffffffffffffffffffffffffffffffffffffff82169050919050565b60006123fc826123d1565b9050919050565b61240c816123f1565b811461241757600080fd5b50565b60008135905061242981612403565b92915050565b6000819050919050565b6124428161242f565b811461244d57600080fd5b50565b60008135905061245f81612439565b92915050565b6000806040838503121561247c5761247b6123c7565b5b600061248a8582860161241a565b925050602061249b85828601612450565b9150509250929050565b6124ae8161242f565b82525050565b60006020820190506124c960008301846124a5565b92915050565b60007fffffffff0000000000000000000000000000000000000000000000000000000082169050919050565b612504816124cf565b811461250f57600080fd5b50565b600081359050612521816124fb565b92915050565b60006020828403121561253d5761253c6123c7565b5b600061254b84828501612512565b91505092915050565b60008115159050919050565b61256981612554565b82525050565b60006020820190506125846000830184612560565b92915050565b6000602082840312156125a05761259f6123c7565b5b60006125ae84828501612450565b91505092915050565b6125c0816123f1565b82525050565b60006020820190506125db60008301846125b7565b92915050565b600081519050919050565b600082825260208201905092915050565b60005b8381101561261b578082015181840152602081019050612600565b60008484015250505050565b6000601f19601f8301169050919050565b6000612643826125e1565b61264d81856125ec565b935061265d8185602086016125fd565b61266681612627565b840191505092915050565b6000602082019050818103600083015261268b8184612638565b905092915050565b600080fd5b7f4e487b7100000000000000000000000000000000000000000000000000000000600052604160045260246000fd5b6126d082612627565b810181811067ffffffffffffffff821117156126ef576126ee612698565b5b80604052505050565b60006127026123bd565b905061270e82826126c7565b919050565b600067ffffffffffffffff82111561272e5761272d612698565b5b602082029050602081019050919050565b600080fd5b600061275761275284612713565b6126f8565b9050808382526020820190506020840283018581111561277a5761277961273f565b5b835b818110156127a3578061278f8882612450565b84526020840193505060208101905061277c565b5050509392505050565b600082601f8301126127c2576127c1612693565b5b81356127d2848260208601612744565b91505092915050565b600080fd5b600067ffffffffffffffff8211156127fb576127fa612698565b5b61280482612627565b9050602081019050919050565b82818337600083830152505050565b600061283361282e846127e0565b6126f8565b90508281526020810184848401111561284f5761284e6127db565b5b61285a848285612811565b509392505050565b600082601f83011261287757612876612693565b5b8135612887848260208601612820565b91505092915050565b600080600080600060a086880312156128ac576128ab6123c7565b5b60006128ba8882890161241a565b95505060206128cb8882890161241a565b945050604086013567ffffffffffffffff8111156128ec576128eb6123cc565b5b6128f8888289016127ad565b935050606086013567ffffffffffffffff811115612919576129186123cc565b5b612925888289016127ad565b925050608086013567ffffffffffffffff811115612946576129456123cc565b5b61295288828901612862565b9150509295509295909350565b600067ffffffffffffffff82111561297a57612979612698565b5b602082029050602081019050919050565b600061299e6129998461295f565b6126f8565b905080838252602082019050602084028301858111156129c1576129c061273f565b5b835b818110156129ea57806129d6888261241a565b8452602084019350506020810190506129c3565b5050509392505050565b600082601f830112612a0957612a08612693565b5b8135612a1984826020860161298b565b91505092915050565b60008060408385031215612a3957612a386123c7565b5b600083013567ffffffffffffffff811115612a5757612a566123cc565b5b612a63858286016129f4565b925050602083013567ffffffffffffffff811115612a8457612a836123cc565b5b612a90858286016127ad565b9150509250929050565b600081519050919050565b600082825260208201905092915050565b6000819050602082019050919050565b612acf8161242f565b82525050565b6000612ae18383612ac6565b60208301905092915050565b6000602082019050919050565b6000612b0582612a9a565b612b0f8185612aa5565b9350612b1a83612ab6565b8060005b83811015612b4b578151612b328882612ad5565b9750612b3d83612aed565b925050600181019050612b1e565b5085935050505092915050565b60006020820190508181036000830152612b728184612afa565b905092915050565b600080600060608486031215612b9357612b926123c7565b5b6000612ba18682870161241a565b935050602084013567ffffffffffffffff811115612bc257612bc16123cc565b5b612bce868287016127ad565b925050604084013567ffffffffffffffff811115612bef57612bee6123cc565b5b612bfb868287016127ad565b9150509250925092565b600060208284031215612c1b57612c1a6123c7565b5b6000612c298482850161241a565b91505092915050565b612c3b81612554565b8114612c4657600080fd5b50565b600081359050612c5881612c32565b92915050565b60008060408385031215612c7557612c746123c7565b5b6000612c838582860161241a565b9250506020612c9485828601612c49565b9150509250929050565b600067ffffffffffffffff821115612cb957612cb8612698565b5b612cc282612627565b9050602081019050919050565b6000612ce2612cdd84612c9e565b6126f8565b905082815260208101848484011115612cfe57612cfd6127db565b5b612d09848285612811565b509392505050565b600082601f830112612d2657612d25612693565b5b8135612d36848260208601612ccf565b91505092915050565b600060208284031215612d5557612d546123c7565b5b600082013567ffffffffffffffff811115612d7357612d726123cc565b5b612d7f84828501612d11565b91505092915050565b60008060408385031215612d9f57612d9e6123c7565b5b6000612dad8582860161241a565b9250506020612dbe8582860161241a565b9150509250929050565b600080600080600060a08688031215612de457612de36123c7565b5b6000612df28882890161241a565b9550506020612e038882890161241a565b9450506040612e1488828901612450565b9350506060612e2588828901612450565b925050608086013567ffffffffffffffff811115612e4657612e456123cc565b5b612e5288828901612862565b9150509295509295909350565b600080600060608486031215612e7857612e776123c7565b5b6000612e868682870161241a565b9350506020612e9786828701612450565b9250506040612ea886828701612450565b9150509250925092565b7f4e487b7100000000000000000000000000000000000000000000000000000000600052603260045260246000fd5b7f4e487b7100000000000000000000000000000000000000000000000000000000600052601160045260246000fd5b6000612f1b8261242f565b9150612f268361242f565b9250828201905080821115612f3e57612f3d612ee1565b5b92915050565b6000604082019050612f5960008301856124a5565b612f6660208301846124a5565b9392505050565b6000604082019050612f8260008301856125b7565b612f8f60208301846125b7565b9392505050565b7f46756e64696e6720616d6f756e7420746f6f206c6f7700000000000000000000600082015250565b6000612fcc6016836125ec565b9150612fd782612f96565b602082019050919050565b60006020820190508181036000830152612ffb81612fbf565b9050919050565b7f4e487b7100000000000000000000000000000000000000000000000000000000600052601260045260246000fd5b600061303c8261242f565b91506130478361242f565b92508261305757613056613002565b5b828204905092915050565b600061306d8261242f565b91506130788361242f565b92508282026130868161242f565b9150828204841483151761309d5761309c612ee1565b5b5092915050565b60006130af8261242f565b91506130ba8361242f565b92508282039050818111156130d2576130d1612ee1565b5b92915050565b7f4f6e6c794f6e63653a20616374696f6e20616c726561647920646f6e65000000600082015250565b600061310e601d836125ec565b9150613119826130d8565b602082019050919050565b6000602082019050818103600083015261313d81613101565b9050919050565b7f4e487b7100000000000000000000000000000000000000000000000000000000600052602260045260246000fd5b6000600282049050600182168061318b57607f821691505b60208210810361319e5761319d613144565b5b50919050565b600081905092915050565b60008190508160005260206000209050919050565b600081546131d181613173565b6131db81866131a4565b945060018216600081146131f6576001811461320b5761323e565b60ff198316865281151582028601935061323e565b613214856131af565b60005b8381101561323657815481890152600182019150602081019050613217565b838801955050505b50505092915050565b6000613252826125e1565b61325c81856131a4565b935061326c8185602086016125fd565b80840191505092915050565b600061328482856131c4565b91506132908284613247565b91508190509392505050565b60006020601f8301049050919050565b600082821b905092915050565b6000600883026132e97fffffffffffffffffffffffffffffffffffffffffffffffffffffffffffffffff826132ac565b6132f386836132ac565b95508019841693508086168417925050509392505050565b6000819050919050565b600061333061332b6133268461242f565b61330b565b61242f565b9050919050565b6000819050919050565b61334a83613315565b61335e61335682613337565b8484546132b9565b825550505050565b600090565b613373613366565b61337e818484613341565b505050565b5b818110156133a25761339760008261336b565b600181019050613384565b5050565b601f8211156133e7576133b8816131af565b6133c18461329c565b810160208510156133d0578190505b6133e46133dc8561329c565b830182613383565b50505b505050565b600082821c905092915050565b600061340a600019846008026133ec565b1980831691505092915050565b600061342383836133f9565b9150826002028217905092915050565b61343c826125e1565b67ffffffffffffffff81111561345557613454612698565b5b61345f8254613173565b61346a8282856133a6565b600060209050601f83116001811461349d576000841561348b578287015190505b6134958582613417565b8655506134fd565b601f1984166134ab866131af565b60005b828110156134d3578489015182556001820191506020850194506020810190506134ae565b868310156134f057848901516134ec601f8916826133f9565b8355505b6001600288020188555050505b505050505050565b600081519050919050565b600082825260208201905092915050565b600061352c82613505565b6135368185613510565b93506135468185602086016125fd565b61354f81612627565b840191505092915050565b600060a08201905061356f60008301886125b7565b61357c60208301876125b7565b61358960408301866124a5565b61359660608301856124a5565b81810360808301526135a88184613521565b90509695505050505050565b6000815190506135c3816124fb565b92915050565b6000602082840312156135df576135de6123c7565b5b60006135ed848285016135b4565b91505092915050565b600060a08201905061360b60008301886125b7565b61361860208301876125b7565b818103604083015261362a8186612afa565b9050818103606083015261363e8185612afa565b905081810360808301526136528184613521565b90509695505050505050565b600060808201905061367360008301876125b7565b61368060208301866124a5565b61368d60408301856124a5565b61369a60608301846124a5565b95945050505050565b600060408201905081810360008301526136bd8185612afa565b905081810360208301526136d18184612afa565b9050939250505056fea26469706673582212203ffbfecfbb2a5ace8e10b2b49d5220b569e19bcbaa51dba3b4c547c505dc1bb564736f6c63430008180033",
  "devdoc": {
    "details": "ERC1155 token contract designed for research papers funding and distribution.      This contract allows researchers to receive funding in exchange for NFT units,       representing a stake in their research project.",
    "errors": {
      "ERC1155InsufficientBalance(address,uint256,uint256,uint256)": [
        {
          "details": "Indicates an error related to the current `balance` of a `sender`. Used in transfers.",
          "params": {
            "balance": "Current balance for the interacting account.",
            "needed": "Minimum amount required to perform a transfer.",
            "sender": "Address whose tokens are being transferred.",
            "tokenId": "Identifier number of a token."
          }
        }
      ],
      "ERC1155InvalidApprover(address)": [
        {
          "details": "Indicates a failure with the `approver` of a token to be approved. Used in approvals.",
          "params": {
            "approver": "Address initiating an approval operation."
          }
        }
      ],
      "ERC1155InvalidArrayLength(uint256,uint256)": [
        {
          "details": "Indicates an array length mismatch between ids and values in a safeBatchTransferFrom operation. Used in batch transfers.",
          "params": {
            "idsLength": "Length of the array of token identifiers",
            "valuesLength": "Length of the array of token amounts"
          }
        }
      ],
      "ERC1155InvalidOperator(address)": [
        {
          "details": "Indicates a failure with the `operator` to be approved. Used in approvals.",
          "params": {
            "operator": "Address that may be allowed to operate on tokens without being their owner."
          }
        }
      ],
      "ERC1155InvalidReceiver(address)": [
        {
          "details": "Indicates a failure with the token `receiver`. Used in transfers.",
          "params": {
            "receiver": "Address to which tokens are being transferred."
          }
        }
      ],
      "ERC1155InvalidSender(address)": [
        {
          "details": "Indicates a failure with the token `sender`. Used in transfers.",
          "params": {
            "sender": "Address whose tokens are being transferred."
          }
        }
      ],
      "ERC1155MissingApprovalForAll(address,address)": [
        {
          "details": "Indicates a failure with the `operator`s approval. Used in transfers.",
          "params": {
            "operator": "Address that may be allowed to operate on tokens without being their owner.",
            "owner": "Address of the current owner of a token."
          }
        }
      ],
      "OwnableInvalidOwner(address)": [
        {
          "details": "The owner is not a valid owner account. (eg. `address(0)`)"
        }
      ],
      "OwnableUnauthorizedAccount(address)": [
        {
          "details": "The caller account is not authorized to perform an operation."
        }
      ],
      "ReentrancyGuardReentrantCall()": [
        {
          "details": "Unauthorized reentrant call."
        }
      ]
    },
    "events": {
      "ApprovalForAll(address,address,bool)": {
        "details": "Emitted when `account` grants or revokes permission to `operator` to transfer their tokens, according to `approved`."
      },
      "Funded(address,uint256,uint256)": {
        "details": "Emitted when the paper receives funding.",
        "params": {
          "amount": "The amount of ETH received.",
          "from": "The address of the funder.",
          "mintedUnits": "The number of NFT units minted in exchange for the funding."
        }
      },
      "ReferencePaper(address,address)": {
        "details": "Emitted when a reference to another paper is created.",
        "params": {
          "from": "The address of this contract.",
          "to": "The address of the referenced paper."
        }
      },
      "TransferBatch(address,address,address,uint256[],uint256[])": {
        "details": "Equivalent to multiple {TransferSingle} events, where `operator`, `from` and `to` are the same for all transfers."
      },
      "TransferSingle(address,address,address,uint256,uint256)": {
        "details": "Emitted when `value` amount of tokens of type `id` are transferred from `from` to `to` by `operator`."
      },
      "URI(string,uint256)": {
        "details": "Emitted when the URI for token type `id` changes to `value`, if it is a non-programmatic URI. If an {URI} event was emitted for `id`, the standard https://eips.ethereum.org/EIPS/eip-1155#metadata-extensions[guarantees] that `value` will equal the value returned by {IERC1155MetadataURI-uri}."
      }
    },
    "kind": "dev",
    "methods": {
      "balanceOf(address,uint256)": {
        "details": "See {IERC1155-balanceOf}."
      },
      "balanceOfBatch(address[],uint256[])": {
        "details": "See {IERC1155-balanceOfBatch}. Requirements: - `accounts` and `ids` must have the same length."
      },
      "constructor": {
        "details": "Constructor to initialize the Paper contract.",
        "params": {
          "_baseFundingPrice": "The base funding price in wei required to mint one NFT unit.",
          "_initialuri": "Initial URI for the token metadata.",
          "_referenceRoyalty": "The percentage of the funding to be distributed as royalties.",
          "_references": "List of addresses representing referenced papers."
        }
      },
      "exists(uint256)": {
        "details": "Indicates whether any token exist with a given id, or not."
      },
      "fund()": {
        "details": "The number of NFT units minted is based on the amount of ETH sent.       A portion of the funding is distributed as royalties to referenced papers."
      },
      "isApprovedForAll(address,address)": {
        "details": "See {IERC1155-isApprovedForAll}."
      },
      "owner()": {
        "details": "Returns the address of the current owner."
      },
      "publishPaper(string)": {
        "details": "This function can only be called once by the owner.",
        "params": {
          "_newuri": "The new URI to set for the token metadata."
        }
      },
      "renounceOwnership()": {
        "details": "Leaves the contract without owner. It will not be possible to call `onlyOwner` functions. Can only be called by the current owner. NOTE: Renouncing ownership will leave the contract without an owner, thereby disabling any functionality that is only available to the owner."
      },
      "safeBatchTransferFrom(address,address,uint256[],uint256[],bytes)": {
        "details": "Calls the internal _distributeAuthorRoyalty function after transfer.",
        "params": {
          "amounts": "An array containing the amount of each token being transferred.",
          "data": "Additional data with no specified format.",
          "from": "The address of the sender.",
          "ids": "An array containing the IDs of each token being transferred.",
          "to": "The address of the recipient."
        }
      },
      "safeTransferFrom(address,address,uint256,uint256,bytes)": {
        "details": "Calls the internal _distributeAuthorRoyalty function after transfer.",
        "params": {
          "amount": "The amount of tokens being transferred.",
          "data": "Additional data with no specified format.",
          "from": "The address of the sender.",
          "id": "The token ID.",
          "to": "The address of the recipient."
        }
      },
      "setApprovalForAll(address,bool)": {
        "details": "See {IERC1155-setApprovalForAll}."
      },
      "supportsInterface(bytes4)": {
        "details": "See {IERC165-supportsInterface}."
      },
      "totalSupply()": {
        "details": "Total value of tokens."
      },
      "totalSupply(uint256)": {
        "details": "Total value of tokens in with a given id."
      },
      "transferOwnership(address)": {
        "details": "Transfers ownership of the contract to a new account (`newOwner`). Can only be called by the current owner."
      },
      "uri(uint256)": {
        "details": "This function is overridden to retrieve the URI from the ERC1155URIStorage extension.",
        "params": {
          "id": "The token ID for which the URI is being requested."
        },
        "returns": {
          "_0": "The URI string for the token metadata."
        }
      }
    },
    "title": "Paper",
    "version": 1
  },
  "userdoc": {
    "kind": "user",
    "methods": {
      "baseFundingPrice()": {
        "notice": "The base funding price in wei required to mint one NFT unit."
      },
      "fund()": {
        "notice": "Allows users to fund the research project in exchange for NFT units."
      },
      "publishPaper(string)": {
        "notice": "Updates the URI for the token metadata."
      },
      "referenceBalances(address)": {
        "notice": "Maps referenced paper addresses to their accumulated royalty balances."
      },
      "referenceRoyalty()": {
        "notice": "The percentage of the funding to be distributed as royalties to referenced papers."
      },
      "references(uint256)": {
        "notice": "List of addresses representing referenced papers."
      },
      "safeBatchTransferFrom(address,address,uint256[],uint256[],bytes)": {
        "notice": "Batch transfer function overridden to include author royalty distribution."
      },
      "safeTransferFrom(address,address,uint256,uint256,bytes)": {
        "notice": "Safe transfer function overridden to include author royalty distribution."
      },
      "uri(uint256)": {
        "notice": "Returns the URI for the token metadata."
      }
    },
    "version": 1
  },
  "storageLayout": {
    "storage": [
      {
        "astId": 326,
        "contract": "contracts/Paper.sol:Paper",
        "label": "_balances",
        "offset": 0,
        "slot": "0",
        "type": "t_mapping(t_uint256,t_mapping(t_address,t_uint256))"
      },
      {
        "astId": 332,
        "contract": "contracts/Paper.sol:Paper",
        "label": "_operatorApprovals",
        "offset": 0,
        "slot": "1",
        "type": "t_mapping(t_address,t_mapping(t_address,t_bool))"
      },
      {
        "astId": 334,
        "contract": "contracts/Paper.sol:Paper",
        "label": "_uri",
        "offset": 0,
        "slot": "2",
        "type": "t_string_storage"
      },
      {
        "astId": 8,
        "contract": "contracts/Paper.sol:Paper",
        "label": "_owner",
        "offset": 0,
        "slot": "3",
        "type": "t_address"
      },
      {
        "astId": 1591,
        "contract": "contracts/Paper.sol:Paper",
        "label": "_totalSupply",
        "offset": 0,
        "slot": "4",
        "type": "t_mapping(t_uint256,t_uint256)"
      },
      {
        "astId": 1593,
        "contract": "contracts/Paper.sol:Paper",
        "label": "_totalSupplyAll",
        "offset": 0,
        "slot": "5",
        "type": "t_uint256"
      },
      {
        "astId": 1767,
        "contract": "contracts/Paper.sol:Paper",
        "label": "_baseURI",
        "offset": 0,
        "slot": "6",
        "type": "t_string_storage"
      },
      {
        "astId": 1771,
        "contract": "contracts/Paper.sol:Paper",
        "label": "_tokenURIs",
        "offset": 0,
        "slot": "7",
        "type": "t_mapping(t_uint256,t_string_storage)"
      },
      {
        "astId": 2080,
        "contract": "contracts/Paper.sol:Paper",
        "label": "_status",
        "offset": 0,
        "slot": "8",
        "type": "t_uint256"
      },
      {
        "astId": 4108,
        "contract": "contracts/Paper.sol:Paper",
        "label": "_done",
        "offset": 0,
        "slot": "9",
        "type": "t_mapping(t_bytes32,t_bool)"
      },
      {
        "astId": 3742,
        "contract": "contracts/Paper.sol:Paper",
        "label": "baseFundingPrice",
        "offset": 0,
        "slot": "10",
        "type": "t_uint256"
      },
      {
        "astId": 3745,
        "contract": "contracts/Paper.sol:Paper",
        "label": "referenceRoyalty",
        "offset": 0,
        "slot": "11",
        "type": "t_uint256"
      },
      {
        "astId": 3749,
        "contract": "contracts/Paper.sol:Paper",
        "label": "references",
        "offset": 0,
        "slot": "12",
        "type": "t_array(t_address)dyn_storage"
      },
      {
        "astId": 3754,
        "contract": "contracts/Paper.sol:Paper",
        "label": "referenceBalances",
        "offset": 0,
        "slot": "13",
        "type": "t_mapping(t_address,t_uint256)"
      }
    ],
    "types": {
      "t_address": {
        "encoding": "inplace",
        "label": "address",
        "numberOfBytes": "20"
      },
      "t_array(t_address)dyn_storage": {
        "base": "t_address",
        "encoding": "dynamic_array",
        "label": "address[]",
        "numberOfBytes": "32"
      },
      "t_bool": {
        "encoding": "inplace",
        "label": "bool",
        "numberOfBytes": "1"
      },
      "t_bytes32": {
        "encoding": "inplace",
        "label": "bytes32",
        "numberOfBytes": "32"
      },
      "t_mapping(t_address,t_bool)": {
        "encoding": "mapping",
        "key": "t_address",
        "label": "mapping(address => bool)",
        "numberOfBytes": "32",
        "value": "t_bool"
      },
      "t_mapping(t_address,t_mapping(t_address,t_bool))": {
        "encoding": "mapping",
        "key": "t_address",
        "label": "mapping(address => mapping(address => bool))",
        "numberOfBytes": "32",
        "value": "t_mapping(t_address,t_bool)"
      },
      "t_mapping(t_address,t_uint256)": {
        "encoding": "mapping",
        "key": "t_address",
        "label": "mapping(address => uint256)",
        "numberOfBytes": "32",
        "value": "t_uint256"
      },
      "t_mapping(t_bytes32,t_bool)": {
        "encoding": "mapping",
        "key": "t_bytes32",
        "label": "mapping(bytes32 => bool)",
        "numberOfBytes": "32",
        "value": "t_bool"
      },
      "t_mapping(t_uint256,t_mapping(t_address,t_uint256))": {
        "encoding": "mapping",
        "key": "t_uint256",
        "label": "mapping(uint256 => mapping(address => uint256))",
        "numberOfBytes": "32",
        "value": "t_mapping(t_address,t_uint256)"
      },
      "t_mapping(t_uint256,t_string_storage)": {
        "encoding": "mapping",
        "key": "t_uint256",
        "label": "mapping(uint256 => string)",
        "numberOfBytes": "32",
        "value": "t_string_storage"
      },
      "t_mapping(t_uint256,t_uint256)": {
        "encoding": "mapping",
        "key": "t_uint256",
        "label": "mapping(uint256 => uint256)",
        "numberOfBytes": "32",
        "value": "t_uint256"
      },
      "t_string_storage": {
        "encoding": "bytes",
        "label": "string",
        "numberOfBytes": "32"
      },
      "t_uint256": {
        "encoding": "inplace",
        "label": "uint256",
        "numberOfBytes": "32"
      }
    }
  }
}